:020000040800F2
:1000000000000220510E0008B90D0008C10D0008C3
:10001000C90D0008D10D0008D90D0008000000002E
:10002000000000000000000000000000E10D0008DA
:10003000EF0D000800000000FD0D00080B0E000889
:10004000A10E0008A10E0008A10E0008A10E0008D4
:10005000A10E0008A10E0008A10E0008A10E0008C4
:10006000A10E0008A10E0008A10E0008A10E0008B4
:10007000A10E0008A10E0008A10E0008A10E0008A4
:10008000A10E0008A10E0008A10E0008A10E000894
:10009000A10E0008A10E0008A10E0008A10E000884
:1000A000A10E0008A10E0008A10E0008A10E000874
:1000B000190E0008A10E0008A10E0008A10E0008EC
:1000C000A10E0008A10E0008A10E0008A10E000854
:1000D000A10E0008A10E0008A10E0008A10E000844
:1000E000A10E0008A10E0008A10E0008A10E000834
:1000F000A10E0008A10E0008A10E0008A10E000824
:10010000A10E0008A10E0008A10E0008A10E000813
:10011000A10E0008A10E0008A10E0008A10E000803
:10012000A10E0008A10E0008A10E0008A10E0008F3
:10013000A10E0008A10E0008A10E0008A10E0008E3
:10014000A10E0008A10E0008A10E0008A10E0008D3
:10015000A10E0008A10E0008A10E0008A10E0008C3
:10016000A10E0008A10E0008A10E0008A10E0008B3
:10017000A10E0008A10E0008A10E0008000000005A
:08018000A10E0008A10E000809
:1001880010B5054C237833B9044B13B10448AFF3C9
:1001980000800123237010BD1C0000200000000017
:1001A800AC2C000808B5034B1BB103490348AFF357
:1001B800008008BD0000000020000020AC2C0008D2
:1001C80053B94AB9002908BF00281CBF4FF0FF31B6
:1001D8004FF0FF3000F06AB9ADF1080C6DE904CEBC
:1001E80000F006F8DDF804E0DDE9022304B070470A
:1001F8002DE9F047089D0C46002B4ED194468C45BE
:100208008646B2FA82F262D94AB1C2F1200391401D
:1002180020FA03F30CFA02FC194300FA02FE4FEA33
:100228001C471FFA8CF6B1FBF7F44FEA1E4307FB95
:10023800141143EA014304FB06F199420AD91CEB65
:10024800030304F1FF3080F01281994240F20F81DC
:10025800023C6344591A1FFA8EF3B1FBF7F007FB0F
:10026800101143EA014300FB06F69E420AD91CEB33
:10027800030300F1FF3180F0FC809E4240F2F980D8
:10028800634402389B1B40EA044000211DB1D3405F
:100298000022C5E90032BDE8F0878B4205D90DB1CF
:1002A800C5E9000100210846F5E7B3FA83F1002902
:1002B80046D1A34202D39042C0F0F080861A64EB84
:1002C80003030120002DE6D0C5E90063E3E7002A17
:1002D80040F09080A1EB0C044FEA1C481FFA8CF701
:1002E8000121B4FBF8F64FEA1E4308FB164443EA23
:1002F800044307FB06F0984208D91CEB030306F1F8
:10030800FF3402D2984200F2CD8026461C1A1FFA0A
:100318008EF3B4FBF8F008FB104443EA044300FBF7
:1003280007F79F4208D91CEB030300F1FF3402D200
:100338009F4200F2B0802046DB1B40EA0640A5E75A
:10034800C1F120068B4022FA06F71F4320FA06FC6B
:1003580004FA01F343EA0C03F44000FA01F8380CFC
:100368004FEA1349B4FBF0FE1FFA87FC00FB1E445A
:1003780049EA04440EFB0CF9A14502FA01F20AD934
:100388003C190EF1FF3A80F08480A14540F281804B
:10039800AEF1020E3C44A4EB09041FFA83F9B4FB46
:1003A800F0F300FB134449EA044403FB0CFCA445A6
:1003B80007D93C1903F1FF3067D2A44565D9023B40
:1003C8003C4443EA0E40A0FB0293A4EB0C049C427D
:1003D800CE469C4651D34ED055B1B8EB0E0364EBD4
:1003E8000C0404FA06F6CB401E43CC40C5E9006471
:1003F800002150E7C2F1200320FA03F10CFA02FCB5
:1004080024FA03F394400C434FEA1C4800FA02FE16
:100418001FFA8CF7B3FBF8F008FB1031230C43EA02
:10042800014300FB07F1994208D91CEB030300F1D3
:10043800FF362CD299422AD9023863445B1AA4B2F7
:10044800B3FBF8F108FB113344EA034401FB07F35B
:10045800A34208D91CEB040401F1FF3613D2A342CE
:1004680011D902396444E41A41EA004139E70446E3
:10047800F0E6084606E7C845AED2B9EB020E63EBD4
:10048800070C0138A8E73146EDE7034699E73046FF
:10049800D4E7D6467FE7634402384DE7064623464D
:1004A80008460FE7023E634430E700BF704700BFCD
:1004B80080B500AF01224021024801F00FF800BFCB
:1004C80080BD00BF0018024080B500AF3F4B1B88BD
:1004D800DBB29AB23D4B1A803D4B1B881A463D4B06
:1004E8009B5C1B021AB2394B1B881BB213431BB20D
:1004F8009AB2364B1A80364B1B88032B46D801A27A
:1005080052F823F01D0500083B05000859050008AE
:10051800770500082D4B1B8843F0B0039AB22B4B8C
:100528001A802A4B1B8823F040039AB2274B1A8063
:100538002DE0264B1B8843F0D0039AB2234B1A8038
:10054800224B1B8823F020039AB2204B1A801EE00E
:100558001E4B1B8843F0E0039AB21C4B1A801B4BBE
:100568001B8823F010039AB2184B1A800FE0174B20
:100578001B8843F070039AB2144B1A80134B1B88E4
:1005880023F080039AB2114B1A8000E000BF104B91
:100598001B8801335A4203F0030302F0030258BFD9
:1005A80053429AB20A4B1A80002240210A4800F0AE
:1005B80095FF012302220549084801F0B0FC0122F9
:1005C8004021054800F08AFF00BF80BD0E000020D2
:1005D8003800002000000020001802403C000020E5
:1005E80080B485B000AFF860B9601346FB71FB6852
:1005F800002B0EDBFB68092B0BDC094AFB68134454
:100608001A78FB79D31AD9B2064ABB6813440A464A
:100618001A7000BF1437BD465DF8047B704700BFF1
:10062800040000200000002080B483B000AF03461F
:10063800FB71FB79012B07D10A4B1B8823F00803B8
:100648009AB2084B1A8006E0064B1B8843F0080351
:100658009AB2044B1A8000BF0C37BD465DF8047B84
:10066800704700BF0E00002080B582B000AFC7F809
:1006780004C0002220210D4800F030FF0022402154
:100688000A4800F02BFF00221021084800F026FF3E
:10069800FFF70EFF064801F0B3FE3221002000F0FC
:1006A800A5FA00BF0837BD4680BD00BF0010024054
:1006B8009400002080B582B000AF07F110037B6082
:1006C80000F0ECFB00F0C6F800F0B0F900F062F9B9
:1006D80000F02AF93B469C46FFF7C6FF0120FFF7CA
:1006E800A3FF0023BB7000237B7000233B700C4BDF
:1006F8001B68012BFBD13221002000F077FA3B4622
:100708009C4600F00FF83B469C4600F02FF83B460D
:100718009C4600F055F83B469C4600F07DF8E6E71D
:100728000401002080B582B000AF6146C7F804C05C
:100738008B785A1C0B4B83FB0203D810D317C01AB3
:1007480003469B0003449B00D01AC3B28B708B787E
:10075800002B03D11021044800F0D9FE00BF083750
:10076800BD4680BD676666660010024080B582B0EF
:1007780000AF6246C7F804C0537801330E4981FBC5
:1007880003014811D917411A642000FB01F1591AD5
:10079800CBB253705378282B05D901222021074862
:1007A80000F09CFE04E000222021044800F096FEA0
:1007B80000BF0837BD4680BD1F85EB5100100240C1
:1007C80080B582B000AF6146C7F804C00B785A1CE8
:1007D8000F4B83FB02031811D317C01A03469B0063
:1007E8000344DB00D01AC3B20B700B780A2B05D96F
:1007F80000224021074800F071FE04E00122402158
:10080800044800F06BFE00BF0837BD4680BD00BF3E
:10081800676666660010024080B582B000AFC7F810
:1008280004C0002200210120FFF7DAFE0022012186
:100838000520FFF7D5FE002202210420FFF7D0FE95
:10084800002203210720FFF7CBFE00BF0837BD4673
:1008580080BD000080B594B000AF07F120033022BE
:100868000021184602F0F2F907F10C0300221A6081
:100878005A609A60DA601A610023BB60284B1B6CCF
:10088800274A43F080531364254B1B6C03F08053B5
:10089800BB60BB6800237B60224B1B68214A43F482
:1008A800804313601F4B1B6803F480437B607B68A5
:1008B80002233B620123FB6210233B630223BB63D9
:1008C8000023FB6308233B64A8237B640223BB64E7
:1008D8000423FB6407F12003184600F033FE0346A7
:1008E800002B01D000F07CF90F23FB6002233B6151
:1008F80000237B614FF4A053BB614FF4A053FB610D
:1009080007F10C030521184601F094F80346002B63
:1009180001D000F065F900BF5037BD4680BD00BF6B
:10092800003802400070004080B500AF174B184AED
:100938001A60164B4FF482725A60144B00229A6068
:10094800124B0022DA60114B00221A610F4B002271
:100958005A610E4B4FF400729A610C4B0022DA6117
:100968000A4B00221A62094B00225A62074B0022E6
:100978009A62064B0A22DA62044801F047FA0346F3
:10098800002B01D000F02CF900BF80BD3C000020F6
:100998000030014080B586B000AF07F1080300229F
:1009A8001A605A609A60DA603B4600221A605A6000
:1009B8001D4B4FF080421A601B4B40F247325A6081
:1009C800194B00229A60184B6322DA60164B0022FA
:1009D8001A61154B00229A61134801F0C1FC0346C5
:1009E800002B01D000F0FCF84FF48053BB6007F1F6
:1009F800080319460C4801F063FE0346002B01D09A
:100A080000F0EEF800233B6000237B603B4619466C
:100A1800054802F08BF80346002B01D000F0E0F8FF
:100A280000BF1837BD4680BD9400002080B58CB04B
:100A380000AF07F11C0300221A605A609A60DA605E
:100A48001A610023BB615A4B1B6B594A43F01003D0
:100A58001363574B1B6B03F01003BB61BB69002387
:100A68007B61534B1B6B524A43F080031363504B1B
:100A78001B6B03F080037B617B6900233B614C4B5C
:100A88001B6B4B4A43F001031363494B1B6B03F089
:100A980001033B613B690023FB60454B1B6B444AE8
:100AA80043F004031363424B1B6B03F00403FB6026
:100AB800FB680023BB603E4B1B6B3D4A43F0400381
:100AC80013633B4B1B6B03F04003BB60BB68002305
:100AD8007B60374B1B6B364A43F008031363344B78
:100AE8001B6B03F008037B607B6800233B60304B83
:100AF8001B6B2F4A43F0020313632D4B1B6B03F050
:100B080002033B603B68002270212A4800F0E6FCA3
:100B180000224021284800F0E1FC00220821274853
:100B280000F0DCFC7023FB6101233B6200237B6245
:100B38000023BB6207F11C0319461E4800F032FB74
:100B4800C023FB6100233B6200237B6207F11C0387
:100B580019461B4800F026FB3023FB6100233B624B
:100B680000237B6207F11C031946164800F01AFBA4
:100B78004023FB6101233B6200237B620023BB62AD
:100B880007F11C0319460C4800F00CFB0823FB6115
:100B980001233B6200237B620023BB6207F11C0335
:100BA8001946064800F0FEFA00BF3037BD4680BD42
:100BB800003802400010024000180240000C0240B9
:100BC800000002400008024080B582B000AF7860A3
:100BD80000F026F8FFF778FC00BF0837BD4680BD57
:100BE80080B400AF72B600BF00BFFDE780B483B029
:100BF80000AF7860396008497B683A6841F823207B
:100C0800064A7B68002142F8231000BF0C37BD4616
:100C18005DF8047B704700BFDC0000200401002061
:100C280080B483B000AF00237B601CE0134A7B686C
:100C380052F82330002B13DD104A7B6852F823301A
:100C48005A1E0E497B6841F823200C4A7B6852F8EB
:100C58002330002B04DC0A4A7B68012142F8231068
:100C68007B6801337B607B68092BDFDD00BF00BF39
:100C78000C37BD465DF8047B704700BFDC000020E0
:100C88000401002080B483B000AF00237B60104BC8
:100C98005B6C0F4A43F4804353640D4B5B6C03F465
:100CA80080437B607B6800233B60094B1B6C084AD0
:100CB80043F080531364064B1B6C03F080533B6076
:100CC8003B6800BF0C37BD465DF8047B704700BF2A
:100CD8000038024080B58AB000AF786007F114038D
:100CE80000221A605A609A60DA601A617B681B6891
:100CF800194A93422BD100233B61184B5B6C174A6E
:100D080043F480535364154B5B6C03F480533B618D
:100D18003B690023FB60114B1B6B104A43F0020335
:100D280013630E4B1B6B03F00203FB60FB68382355
:100D38007B610223BB610023FB6103233B62052324
:100D48007B6207F114031946054800F02BFA00BF2F
:100D58002837BD4680BD00BF003001400038024042
:100D68000004024080B584B000AF78607B681B68DF
:100D7800B3F1804F15D10023FB600C4B1B6C0B4A61
:100D880043F001031364094B1B6C03F00103FB6080
:100D9800FB68002200211C2000F0CDF91C2000F087
:100DA800E6F900BF1037BD4680BD00BF00380240DD
:100DB80080B400AF00BFFDE780B400AF00BFFDE71F
:100DC80080B400AF00BFFDE780B400AF00BFFDE70F
:100DD80080B400AF00BFFDE780B400AF00BFBD46E0
:100DE8005DF8047B704780B400AF00BFBD465DF876
:100DF800047B704780B400AF00BFBD465DF8047B3C
:100E0800704780B500AF00F09BF800BF80BD0000C0
:100E180080B500AF024801F063FB00BF80BD00BF92
:100E28009400002080B400AF064BD3F88830054A00
:100E380043F47003C2F8883000BFBD465DF8047BF8
:100E4800704700BF00ED00E0DFF834D0FFF7EAFF9D
:100E58000C480D490D4A002302E0D458C45004330D
:100E6800C4188C42F9D30A4A0A4C002301E01360E3
:100E78000432A242FBD301F0F1FEFFF71BFC7047DE
:100E880000000220000000201C000020E42C0008C4
:100E98001C00002030010020FEE7000080B500AFF4
:100EA8000E4B1B680D4A43F4007313600B4B1B6811
:100EB8000A4A43F480631360084B1B68074A43F4EB
:100EC80080731360032000F02BF90F2000F008F85E
:100ED800FFF7D8FE0023184680BD00BF003C024043
:100EE80080B582B000AF7860124B1A68124B1B783D
:100EF80019464FF47A73B3FBF1F3B2FBF3F31846D8
:100F080000F043F90346002B01D001230EE07B6873
:100F18000F2B0AD8002279684FF0FF3000F00BF948
:100F2800064A7B681360002300E00123184608374F
:100F3800BD4680BD100000201800002014000020CD
:100F480080B400AF064B1B781A46064B1B68134447
:100F5800044A136000BFBD465DF8047B704700BFBC
:100F6800180000202C01002080B400AF034B1B6840
:100F78001846BD465DF8047B704700BF2C01002071
:100F880080B485B000AF78607B6803F00703FB602E
:100F98000C4BDB68BB60BA684FF6FF031340BB60BD
:100FA800FB681A02BB68134343F0BF6343F4003382
:100FB800BB60044ABB68D36000BF1437BD465DF808
:100FC800047B704700ED00E080B400AF044BDB68A1
:100FD8001B0A03F007031846BD465DF8047B7047FB
:100FE80000ED00E080B483B000AF0346FB7197F9D1
:100FF8000730002B0BDBFB7903F01F02074997F939
:1010080007305B09012000FA02F241F8232000BFF3
:101018000C37BD465DF8047B704700BF00E100E077
:1010280080B483B000AF03463960FB7197F907308D
:10103800002B0ADB3B68DAB20C4997F9073012013A
:10104800D2B20B4483F800230AE03B68DAB20849BD
:10105800FB7903F00F03043B1201D2B20B441A765A
:1010680000BF0C37BD465DF8047B704700E100E027
:1010780000ED00E080B489B000AFF860B9607A6034
:10108800FB6803F00703FB61FB69C3F10703042B4B
:1010980028BF0423BB61FB690433062B02D9FB6913
:1010A800033B00E000237B614FF0FF32BB6902FA8B
:1010B80003F3DA43BB681A407B699A404FF0FF316B
:1010C8007B6901FA03F3D9437B680B401343184645
:1010D8002437BD465DF8047B7047000080B582B0B8
:1010E80000AF78607B68013BB3F1807F01D30123B7
:1010F8000FE00A4A7B68013B53600F214FF0FF3035
:10110800FFF78EFF054B00229A60044B07221A60F6
:10111800002318460837BD4680BD00BF10E000E038
:1011280080B582B000AF78607868FFF729FF00BF0C
:101138000837BD4680BD80B586B000AF0346B960AC
:101148007A60FB7300237B61FFF73EFF78617A6862
:10115800B9687869FFF78EFF024697F90F30114694
:101168001846FFF75DFF00BF1837BD4680BD80B544
:1011780082B000AF0346FB7197F907301846FFF7B6
:1011880031FF00BF0837BD4680BD80B582B000AFD3
:1011980078607868FFF7A2FF034618460837BD460F
:1011A80080BD000080B489B000AF7860396000234A
:1011B8007B6100233B610023BB610023FB616BE182
:1011C8000122FB6902FA03F37B613B681B687A69B9
:1011D80013403B613A697B699A4240F05A813B6807
:1011E8005B6803F00303012B05D03B685B6803F0E1
:1011F8000303022B30D17B689B68BB61FB695B00F2
:10120800032202FA03F3DB43BA691340BB613B686C
:10121800DA68FB695B0002FA03F3BA691343BB613E
:101228007B68BA699A607B685B68BB610122FB696D
:1012380002FA03F3DB43BA691340BB613B685B689E
:101248001B0903F00102FB6902FA03F3BA691343AD
:10125800BB617B68BA695A603B685B6803F003034B
:10126800032B17D07B68DB68BB61FB695B0003223B
:1012780002FA03F3DB43BA691340BB613B689A681F
:10128800FB695B0002FA03F3BA691343BB617B682D
:10129800BA69DA603B685B6803F00303022B23D169
:1012A800FB69DA087B68083253F82230BB61FB69B6
:1012B80003F007039B000F2202FA03F3DB43BA692A
:1012C8001340BB613B681A69FB6903F007039B0085
:1012D80002FA03F3BA691343BB61FB69DA087B6856
:1012E8000832B96943F822107B681B68BB61FB6947
:1012F8005B00032202FA03F3DB43BA691340BB61C4
:101308003B685B6803F00302FB695B0002FA03F3C6
:10131800BA691343BB617B68BA691A603B685B684A
:1013280003F44033002B00F0B4800023FB60604BD3
:101338005B6C5F4A43F4804353645D4B5B6C03F41E
:101348008043FB60FB685B4AFB699B08023352F8E9
:101358002330BB61FB6903F003039B000F2202FAF1
:1013680003F3DB43BA691340BB617B68524A93427B
:101378002BD07B68514A934225D07B68504A9342D0
:101388001FD07B684F4A934219D07B684E4A9342DC
:1013980013D07B684D4A93420DD07B684C4A9342E8
:1013A80007D07B684B4A934201D107230EE00823FC
:1013B8000CE006230AE0052308E0042306E00323E3
:1013C80004E0022302E0012300E00023FA6902F0AE
:1013D800030292009340BA691343BB613549FB6924
:1013E8009B080233BA6941F823203B4B9B68BB61D9
:1013F8003B69DB43BA691340BB613B685B6803F434
:101408008013002B03D0BA693B691343BB61324A8E
:10141800BB699360304BDB68BB613B69DB43BA69EE
:101428001340BB613B685B6803F40013002B03D0D7
:10143800BA693B691343BB61274ABB69D360264B32
:101448005B68BB613B69DB43BA691340BB613B68BE
:101458005B6803F40033002B03D0BA693B6913437C
:10146800BB611D4ABB6953601B4B1B68BB613B6971
:10147800DB43BA691340BB613B685B6803F48033A4
:10148800002B03D0BA693B691343BB61124ABB699D
:101498001360FB690133FB61FB690F2B7FF690AE8C
:1014A80000BF00BF2437BD465DF8047B704700BF0E
:1014B80000380240003801400000024000040240A9
:1014C80000080240000C02400010024000140240D4
:1014D80000180240001C0240003C014080B483B068
:1014E80000AF78600B467B8013467B707B78002BBF
:1014F80003D07A887B689A6103E07B881A047B684A
:101508009A6100BF0C37BD465DF8047B704780B414
:1015180085B000AF78600B467B807B685B69FB60B9
:101528007A88FB6813401A04FB68D9437B880B4010
:101538001A437B689A6100BF1437BD465DF8047B87
:101548007047000080B586B000AF78607B68002BDC
:1015580001D1012367E27B681B6803F00103002BBC
:1015680075D0884B9B6803F00C03042B0CD0854B7B
:101578009B6803F00C03082B12D1824B5B6803F4C1
:101588008003B3F5800F0BD17E4B1B6803F4003347
:10159800002B5BD07B685B68002B57D1012342E2AC
:1015A8007B685B68B3F5803F06D1764B1B68754A4C
:1015B80043F4803313601DE07B685B68B3F5A02FAC
:1015C8000CD1704B1B686F4A43F4802313606D4B3A
:1015D8001B686C4A43F4803313600BE0694B1B684B
:1015E800684A23F480331360664B1B68654A23F40A
:1015F800802313607B685B68002B13D0FFF7B4FC73
:10160800386108E0FFF7B0FC02463B69D31A642B47
:1016180001D9032307E25B4B1B6803F40033002B5B
:10162800F0D014E0FFF7A0FC386108E0FFF79CFC5D
:1016380002463B69D31A642B01D90323F3E1514BCA
:101648001B6803F40033002BF0D100E000BF7B6877
:101658001B6803F00203002B63D04A4B9B6803F01E
:101668000C03002B0BD0474B9B6803F00C03082B93
:101678001CD1444B5B6803F48003002B16D1414B0B
:101688001B6803F00203002B05D07B68DB68012B85
:1016980001D00123C7E13B4B1B6823F0F8027B68AC
:1016A8001B69DB00374913430B603AE07B68DB6852
:1016B800002B20D0344B01221A60FFF755FC38610B
:1016C80008E0FFF751FC02463B69D31A022B01D907
:1016D8000323A8E12B4B1B6803F00203002BF0D077
:1016E800284B1B6823F0F8027B681B69DB0025493F
:1016F80013430B6015E0244B00221A60FFF734FCFB
:10170800386108E0FFF730FC02463B69D31A022B28
:1017180001D9032387E11B4B1B6803F00203002B4D
:10172800F0D17B681B6803F00803002B36D07B6878
:101738005B69002B16D0154B01221A60FFF714FCC9
:10174800386108E0FFF710FC02463B69D31A022B08
:1017580001D9032367E10B4B5B6F03F00203002BF6
:10176800F0D01BE0094B00221A60FFF7FDFB38613F
:101778000EE0FFF7F9FB02463B69D31A022B07D9A3
:10178800032350E10038024000004742800E4742E0
:10179800884B5B6F03F00203002BEAD17B681B6860
:1017A80003F00403002B00F097800023FB75814BA6
:1017B8001B6C03F08053002B0FD10023BB607D4BC3
:1017C8001B6C7C4A43F0805313647A4B1B6C03F008
:1017D8008053BB60BB680123FB75774B1B6803F420
:1017E8008073002B18D1744B1B68734A43F48073C1
:1017F8001360FFF7B9FB386108E0FFF7B5FB024655
:101808003B69D31A022B01D903230CE16A4B1B68ED
:1018180003F48073002BF0D07B689B68012B06D102
:10182800644B1B6F634A43F0010313671CE07B683A
:101838009B68052B0CD15F4B1B6F5E4A43F004037A
:1018480013675C4B1B6F5B4A43F0010313670BE0A4
:10185800584B1B6F574A23F001031367554B1B6FF7
:10186800544A23F0040313677B689B68002B15D048
:10187800FFF77AFB38610AE0FFF776FB02463B691F
:10188800D31A41F28832934201D90323CBE0494B62
:101898001B6F03F00203002BEED014E0FFF764FB8C
:1018A80038610AE0FFF760FB02463B69D31A41F250
:1018B8008832934201D90323B5E03E4B1B6F03F0F6
:1018C8000203002BEED1FB7D012B05D1394B1B6C9C
:1018D800384A23F0805313647B689B69002B00F01F
:1018E800A180344B9B6803F00C03082B5CD07B6809
:1018F8009B69022B41D1314B00221A60FFF734FB60
:10190800386108E0FFF730FB02463B69D31A022B27
:1019180001D9032387E0274B1B6803F00073002BD2
:10192800F0D17B68DA697B681B6A1A437B685B6A5B
:101938009B011A437B689B6A5B08013B1B041A43A3
:101948007B68DB6A1B061B4913434B601B4B012258
:101958001A60FFF709FB386108E0FFF705FB02464C
:101968003B69D31A022B01D903235CE0114B1B6896
:1019780003F00073002BF0D054E0104B00221A60E3
:10198800FFF7F2FA386108E0FFF7EEFA02463B6922
:10199800D31A022B01D9032345E0064B1B6803F039
:1019A8000073002BF0D13DE07B689B69012B07D1C8
:1019B800012338E0003802400070004060004742D0
:1019C8001B4B5B68FB607B689B69012B28D0FB681D
:1019D80003F480027B68DB699A4221D1FB6803F03B
:1019E8003F027B681B6A9A421AD1FA6847F6C073AD
:1019F80013407A68526A9201934211D1FB6803F44A
:101A080040327B689B6A5B08013B1B049A4207D102
:101A1800FB6803F070627B68DB6A1B069A4201D0A0
:101A2800012300E0002318461837BD4680BD00BFDB
:101A38000038024080B584B000AF786039607B68B8
:101A4800002B01D10123CCE0684B1B6803F007038E
:101A58003A689A420CD9654B3A68D2B21A70634B0D
:101A68001B6803F007033A689A4201D00123B8E0E3
:101A78007B681B6803F00203002B20D07B681B687F
:101A880003F00403002B05D0594B9B68584A43F4D4
:101A9800E05393607B681B6803F00803002B05D0B4
:101AA800534B9B68524A43F460439360504B9B6886
:101AB80023F0F0027B689B684D4913438B607B6879
:101AC8001B6803F00103002B44D07B685B68012B83
:101AD80007D1474B1B6803F40033002B19D10123AE
:101AE8007FE07B685B68022B03D07B685B68032B15
:101AF80007D13F4B1B6803F00073002B09D101236A
:101B08006FE03B4B1B6803F00203002B01D101235C
:101B180067E0374B9B6823F003027B685B683449B6
:101B280013438B60FFF720FAF8600AE0FFF71CFA0E
:101B38000246FB68D31A41F28832934201D9032343
:101B48004FE02B4B9B6803F00C027B685B689B00A3
:101B58009A42EBD1254B1B6803F007033A689A4277
:101B68000CD2224B3A68D2B21A70204B1B6803F091
:101B780007033A689A4201D0012332E07B681B6868
:101B880003F00403002B08D0194B9B6823F4E052A0
:101B98007B68DB68164913438B607B681B6803F01E
:101BA8000803002B09D0124B9B6823F460427B6822
:101BB8001B69DB000E4913438B6000F021F80246D5
:101BC8000B4B9B681B0903F00F030A49CB5C22FAF5
:101BD80003F3094A1360094B1B681846FFF780F99D
:101BE800002318461037BD4680BD00BF003C0240A8
:101BF80000380240C42C0008100000201400002007
:101C08002DE9B04F94B000AF00237B640023FB6440
:101C180000233B640023BB64794B9B6803F00C03EF
:101C2800082B0DD0082B00F2E180002B02D0042BEA
:101C380003D0DBE0734BBB64DBE0734BBB64D8E0E1
:101C48006F4B5B6803F03F037B646D4B5B6803F489
:101C58008003002B63D06A4B5B689B090022BB633F
:101C6800FA63BB6BC3F308033B6300237B63D7E9C9
:101C78000C4522462B464FF000004FF00001590159
:101C880041EAD261500102460B462146511A396198
:101C9800294663EB01037B614FF000024FF000031C
:101CA800D7E904AB59468B01514643EA9163514643
:101CB8008A015146B2EB0108594663EB01094FF01E
:101CC80000024FF000034FEAC90343EA58734FEA92
:101CD800C80290469946234618EB0303BB602B467F
:101CE80049EB0303FB604FF000024FF00003D7E914
:101CF800024529464B02214643EAD15321464A026E
:101D0800104619467B6C0022BB62FA62D7E90A23A7
:101D1800FEF756FA02460B461346FB6458E0384B6A
:101D28005B689B09002218461146C0F308033B6212
:101D380000237B62D7E9088942464B464FF00000F2
:101D48004FF00001590141EAD261500102460B46A9
:101D58004146B2EB010A494663EB010B4FF0000222
:101D68004FF000034FEA8B1343EA9A634FEA8A1253
:101D7800B2EB0A0463EB0B054FF000024FF00003CF
:101D8800EB0043EA5473E20014461D464346E31849
:101D98003B604B4645EB03037B604FF000024FF07E
:101DA8000003D7E9004529468B02214643EA9153AF
:101DB80021468A02104619467B6C0022BB61FA61F3
:101DC800D7E90623FEF7FCF902460B461346FB64E7
:101DD8000B4B5B681B0C03F0030301335B003B6494
:101DE800FA6C3B6CB2FBF3F3BB6402E0054BBB64DB
:101DF80000BFBB6C18465037BD46BDE8B08F00BF6A
:101E0800003802400024F40000127A0080B582B045
:101E180000AF78607B68002B01D101237BE07B68F1
:101E28005B6A002B08D17B685B68B3F5827F09D0B9
:101E38007B680022DA6105E07B6800221A617B6812
:101E480000225A617B6800229A627B6893F85130BD
:101E5800DBB2002B06D17B68002283F8502078681B
:101E6800FEF738FF7B68022283F851207B681B68E5
:101E78001A687B681B6822F040021A607B685B68FE
:101E880003F482727B689B6803F404431A437B68FB
:101E9800DB6803F400631A437B681B6903F00203E1
:101EA8001A437B685B6903F001031A437B689B69EB
:101EB80003F400731A437B68DB6903F038031A43A1
:101EC8007B681B6A03F0800342EA03017B689B6A14
:101ED80003F400527B681B680A431A607B689B699D
:101EE8001B0C03F004017B685B6A03F010027B683B
:101EF8001B680A435A607B681B68DA697B681B6841
:101F080022F40062DA617B6800225A657B6801224C
:101F180083F85120002318460837BD4680BD80B598
:101F280088B000AFF860B9603B601346FB80FFF7EC
:101F38001BF8F861FB887B83FB6893F85130DBB2B0
:101F4800012B01D002232AE1BB68002B02D0FB88B9
:101F5800002B01D1012322E1FB6893F85030012BBB
:101F680001D102231BE1FB68012283F85020FB68A2
:101F7800032283F85120FB6800225A65FB68BA687F
:101F88001A63FB68FA889A86FB68FA88DA86FB681F
:101F980000229A63FB6800229A87FB680022DA878E
:101FA800FB6800225A64FB6800221A64FB689B687D
:101FB800B3F5004F0FD1FB681B681A68FB681B68F4
:101FC80022F040021A60FB681B681A68FB681B68ED
:101FD80042F480421A60FB681B681B6803F04003E8
:101FE800402B07D0FB681B681A68FB681B6842F027
:101FF80040021A60FB68DB68B3F5006F52D1FB68DA
:102008005B68002B02D07B8B012B45D1FB681B6BD7
:102018001A88FB681B68DA60FB681B6B9A1CFB68F4
:102028001A63FB68DB8E9BB2013B9AB2FB68DA86C7
:1020380032E0FB681B689B6803F00203022B12D195
:10204800FB681B6B1A88FB681B68DA60FB681B6BF4
:102058009A1CFB681A63FB68DB8E9BB2013B9AB241
:10206800FB68DA8618E0FEF77FFF0246FB69D31AA1
:102078003A689A4203D83B68B3F1FF3F02D13B6804
:10208800002B09D1FB68012283F85120FB6800224C
:1020980083F85020032382E0FB68DB8E9BB2002B81
:1020A800C7D153E0FB685B68002B02D07B8B012B08
:1020B80047D1FB681A6BFB681B680C3312781A70DF
:1020C800FB681B6B5A1CFB681A63FB68DB8E9BB2B0
:1020D800013B9AB2FB68DA8633E0FB681B689B68B1
:1020E80003F00203022B13D1FB681A6BFB681B6811
:1020F8000C3312781A70FB681B6B5A1CFB681A6346
:10210800FB68DB8E9BB2013B9AB2FB68DA8618E06B
:10211800FEF72AFF0246FB69D31A3A689A4203D8A7
:102128003B68B3F1FF3F02D13B68002B09D1FB6844
:10213800012283F85120FB68002283F850200323F2
:102148002DE0FB68DB8E9BB2002BC6D1FA6939689B
:10215800F86800F0B1F80346002B02D0FB68202293
:102168005A65FB689B68002B0AD100237B61FB68DA
:102178001B68DB687B61FB681B689B687B617B690C
:10218800FB68012283F85120FB68002283F8502065
:10219800FB685B6D002B01D0012300E0002318468B
:1021A8002037BD4680BD000080B588B000AFF8601C
:1021B800B9603B601346FB71FEF7D6FE0246BB6A68
:1021C8009B1A3A681344FB61FEF7CEFEB861394B9F
:1021D8001B685B011B0DFA6902FB03F37B6154E08A
:1021E8003B68B3F1FF3F50D0FEF7BEFE0246BB6925
:1021F800D31AFA699A4202D9FB69002B3DD1FB68D0
:102208001B685A68FB681B6822F0E0025A60FB688A
:102218005B68B3F5827F11D1FB689B68B3F5004F0B
:1022280004D0FB689B68B3F5806F07D1FB681B6817
:102238001A68FB681B6822F040021A60FB689B6AF8
:10224800B3F5005F0FD1FB681B681A68FB681B6851
:1022580022F400521A60FB681B681A68FB681B6846
:1022680042F400521A60FB68012283F85120FB688F
:10227800002283F85020032317E07B69002B01D14B
:102288000023FB617B69013B7B61FB681B689A68E3
:10229800BB681340BA689A420CBF01230023DBB223
:1022A8001A46FB799A429BD1002318462037BD462F
:1022B80080BD00BF1000002080B588B002AFF86074
:1022C800B9607A607B680093BB6801220221F868D4
:1022D800FFF76AFF0346002B07D0FB685B6D43F0EE
:1022E8002002FB685A65032332E01B4B1B681B4A1C
:1022F800A2FB03235B0D4FF47A7202FB03F37B61AD
:10230800FB685B68B3F5827F12D17B680093BB687A
:1023180000228021F868FFF747FF0346002B16D0FC
:10232800FB685B6D43F02002FB685A6503230FE0EE
:102338007B69002B0AD07B69013B7B61FB681B68CA
:102348009B6803F08003802BF2D000E000BF0023DD
:1023580018461837BD4680BD10000020819F5E16C4
:1023680080B582B000AF78607B68002B01D1012373
:1023780041E07B6893F83D30DBB2002B06D17B68E7
:10238800002283F83C207868FEF7ECFC7B68022288
:1023980083F83D207B681A687B6804331946104629
:1023A80000F07EFA7B68012283F846207B680122D0
:1023B80083F83E207B68012283F83F207B68012256
:1023C80083F840207B68012283F841207B68012242
:1023D80083F842207B68012283F843207B6801222E
:1023E80083F844207B68012283F845207B6801221A
:1023F80083F83D20002318460837BD4680BD0000FD
:1024080080B485B000AF78607B6893F83D30DBB26C
:10241800012B01D001234EE07B68022283F83D2086
:102428007B681B68DA687B681B6842F00102DA6027
:102438007B681B68234A934222D07B681B68B3F1F0
:10244800804F1DD07B681B681F4A934218D07B6859
:102458001B681E4A934213D07B681B681C4A934230
:102468000ED07B681B681B4A934209D07B681B68A7
:10247800194A934204D07B681B68184A934211D1C9
:102488007B681B689B6803F00703FB60FB68062BEF
:1024980010D07B681B681A687B681B6842F00102D1
:1024A8001A6007E07B681B681A687B681B6842F043
:1024B80001021A60002318461437BD465DF8047BF4
:1024C800704700BF000001400004004000080040C1
:1024D800000C00400004014000400140001800408A
:1024E80080B584B000AF78607B681B68DB68FB60F0
:1024F8007B681B681B69BB60BB6803F00203002B89
:1025080020D0FB6803F00203002B1BD07B681B68FC
:102518006FF002021A617B6801221A777B681B68D8
:102528009B6903F00303002B03D0786800F099F946
:1025380005E0786800F08BF9786800F09CF97B6812
:1025480000221A77BB6803F00403002B20D0FB6835
:1025580003F00403002B1BD07B681B686FF0040298
:102568001A617B6802221A777B681B689B6903F4EF
:102578004073002B03D0786800F073F905E07868A1
:1025880000F065F9786800F076F97B6800221A7720
:10259800BB6803F00803002B20D0FB6803F0080396
:1025A800002B1BD07B681B686FF008021A617B68E0
:1025B80004221A777B681B68DB6903F00303002B8E
:1025C80003D0786800F04DF905E0786800F03FF92D
:1025D800786800F050F97B6800221A77BB6803F02E
:1025E8001003002B20D0FB6803F01003002B1BD036
:1025F8007B681B686FF010021A617B6808221A77E3
:102608007B681B68DB6903F44073002B03D0786890
:1026180000F027F905E0786800F019F9786800F00B
:102628002AF97B6800221A77BB6803F00103002BA4
:102638000CD0FB6803F00103002B07D07B681B68F4
:102648006FF001021A617868FEF7BEFABB6803F002
:102658008003002B0CD0FB6803F08003002B07D00D
:102668007B681B686FF080021A61786800F0E4FAF2
:10267800BB6803F04003002B0CD0FB6803F0400359
:10268800002B07D07B681B686FF040021A617868DE
:1026980000F0FBF8BB6803F02003002B0CD0FB68AC
:1026A80003F02003002B07D07B681B686FF0200223
:1026B8001A61786800F0B6FA00BF1037BD4680BDD1
:1026C80080B584B000AF786039600023FB737B6805
:1026D80093F83C30012B01D10223B4E07B6801223E
:1026E80083F83C207B68022283F83D207B681B68C6
:1026F8009B68BB60BB6823F07703BB60BB6823F4AF
:102708007F43BB607B681B68BA689A603B681B683C
:10271800B3F5005F3ED0B3F5005F00F28780B3F5F4
:10272800805F00F08680B3F5805F7FD8702B1AD069
:10273800702B7BD8602B50D0602B77D8502B3CD097
:10274800502B73D8402B58D0402B6FD8302B64D0E7
:10275800302B6BD8202B60D0202B67D8002B5CD077
:10276800102B5AD062E07B6818683B6899683B6810
:102778005A683B68DB6800F0B9F97B681B689B689E
:10278800BB60BB6843F07703BB607B681B68BA68B3
:102798009A604FE07B6818683B6899683B685A689C
:1027A8003B68DB6800F0A2F97B681B689A687B6865
:1027B8001B6842F480429A603CE07B6818683B687A
:1027C80059683B68DB681A4600F016F97B681B6895
:1027D8005021184600F06FF92CE07B6818683B68B8
:1027E80059683B68DB681A4600F035F97B681B6856
:1027F8006021184600F05FF91CE07B6818683B68A8
:1028080059683B68DB681A4600F0F6F87B681B6875
:102818004021184600F04FF90CE07B681A683B68C5
:102828001B681946104600F046F903E00123FB73C4
:1028380000E000BF7B68012283F83D207B6800220E
:1028480083F83C20FB7B18461037BD4680BD80B41A
:1028580083B000AF786000BF0C37BD465DF8047BDD
:10286800704780B483B000AF786000BF0C37BD46B6
:102878005DF8047B704780B483B000AF786000BF18
:102888000C37BD465DF8047B704780B483B000AF59
:10289800786000BF0C37BD465DF8047B70470000C8
:1028A80080B485B000AF786039607B681B68FB60D6
:1028B8007B68464A934213D07B68B3F1804F0FD0B0
:1028C8007B68434A93420BD07B68424A934207D0C5
:1028D8007B68414A934203D07B68404A934208D1BF
:1028E800FB6823F07003FB603B685B68FA6813437E
:1028F800FB607B68354A93422BD07B68B3F1804FED
:1029080027D07B68324A934223D07B68314A93426E
:102918001FD07B68304A93421BD07B682F4A934272
:1029280017D07B682E4A934213D07B682D4A934276
:102938000FD07B682C4A93420BD07B682B4A93427A
:1029480007D07B682A4A934203D07B68294A93427E
:1029580008D1FB6823F44073FB603B68DB68FA68C6
:102968001343FB60FB6823F080023B685B691343F9
:10297800FB607B68FA681A603B689A687B68DA6271
:102988003B681A687B689A627B68104A934203D056
:102998007B68124A934203D13B681A697B681A63C1
:1029A8007B6801225A617B681B6903F00103012BD4
:1029B80005D17B681B6923F001027B681A6100BF9F
:1029C8001437BD465DF8047B704700BF0000014026
:1029D8000004004000080040000C004000040140D2
:1029E80000400140004401400048014000180040F8
:1029F800001C00400020004080B487B000AFF860A1
:102A0800B9607A60FB681B6A7B61FB681B6A23F00C
:102A18000102FB681A62FB689B693B613B6923F012
:102A2800F0033B617B681B013A6913433B617B6997
:102A380023F00A037B617A69BB6813437B61FB68F7
:102A48003A699A61FB687A691A6200BF1C37BD4609
:102A58005DF8047B704780B487B000AFF860B96058
:102A68007A60FB681B6A7B61FB681B6A23F01002B3
:102A7800FB681A62FB689B693B613B6923F47043FE
:102A88003B617B681B033A6913433B617B6923F015
:102A9800A0037B61BB681B017A6913437B61FB68F8
:102AA8003A699A61FB687A691A6200BF1C37BD46A9
:102AB8005DF8047B704780B485B000AF78603960FA
:102AC8007B689B68FB60FB6823F07003FB603A68D7
:102AD800FB68134343F00703FB607B68FA689A605E
:102AE80000BF1437BD465DF8047B704780B487B0DB
:102AF80000AFF860B9607A603B60FB689B687B61F7
:102B08007B6923F47F437B613B681A027B681A4325
:102B1800BB6813437A6913437B61FB687A699A60DF
:102B280000BF1C37BD465DF8047B704780B485B094
:102B380000AF786039607B6893F83C30012B01D195
:102B480002235AE07B68012283F83C207B6802223A
:102B580083F83D207B681B685B68FB607B681B68AB
:102B68009B68BB60FB6823F07003FB603B681B68D5
:102B7800FA681343FB607B681B68FA685A607B68D5
:102B88001B68214A934222D07B681B68B3F1804FAF
:102B98001DD07B681B681D4A934218D07B681B6850
:102BA8001B4A934213D07B681B681A4A93420ED083
:102BB8007B681B68184A934209D07B681B68174AD0
:102BC800934204D07B681B68154A93420CD1BB68BA
:102BD80023F08003BB603B685B68BA681343BB6043
:102BE8007B681B68BA689A607B68012283F83D207D
:102BF8007B68002283F83C20002318461437BD4622
:102C08005DF8047B704700BF0000014000040040ED
:102C180000080040000C0040000401400040014052
:102C28000018004080B483B000AF786000BF0C3754
:102C3800BD465DF8047B704780B483B000AF786010
:102C480000BF0C37BD465DF8047B7047024403465D
:102C5800934200D1704703F8011BF9E770B50D4D99
:102C68000D4C641BA4100026A64209D10B4D0C4C38
:102C780000F018F8641BA4100026A64205D170BD08
:102C880055F8043B98470136EEE755F8043B98475A
:102C98000136F2E7DC2C0008DC2C0008DC2C0008EC
:102CA800E02C0008F8B500BFF8BC08BC9E46704789
:0C2CB800F8B500BFF8BC08BC9E46704791
:102CC40000000000000000000102030406070809D8
:082CD40024D5FF7F0100000080
:042CDC00AD0100083E
:042CE000890100085E
:102CE40000010203039F250D9949411F0109FFFFBC
:0C2CF4000024F4001000000001000000AB
:0400000508000E5190
:00000001FF
